{
  "contractName": "GuitarShop",
  "abi": [
    {
      "inputs": [],
      "stateMutability": "nonpayable",
      "type": "constructor"
    },
    {
      "anonymous": false,
      "inputs": [
        {
          "indexed": false,
          "internalType": "uint256",
          "name": "skuCount",
          "type": "uint256"
        }
      ],
      "name": "ForSale",
      "type": "event"
    },
    {
      "anonymous": false,
      "inputs": [
        {
          "indexed": false,
          "internalType": "uint256",
          "name": "sku",
          "type": "uint256"
        }
      ],
      "name": "Received",
      "type": "event"
    },
    {
      "anonymous": false,
      "inputs": [
        {
          "indexed": false,
          "internalType": "uint256",
          "name": "sku",
          "type": "uint256"
        }
      ],
      "name": "Shipped",
      "type": "event"
    },
    {
      "anonymous": false,
      "inputs": [
        {
          "indexed": false,
          "internalType": "uint256",
          "name": "sku",
          "type": "uint256"
        }
      ],
      "name": "Sold",
      "type": "event"
    },
    {
      "inputs": [
        {
          "internalType": "uint256",
          "name": "",
          "type": "uint256"
        }
      ],
      "name": "items",
      "outputs": [
        {
          "internalType": "string",
          "name": "name",
          "type": "string"
        },
        {
          "internalType": "uint256",
          "name": "price",
          "type": "uint256"
        },
        {
          "internalType": "uint256",
          "name": "sku",
          "type": "uint256"
        },
        {
          "internalType": "address payable",
          "name": "seller",
          "type": "address"
        },
        {
          "internalType": "address payable",
          "name": "buyer",
          "type": "address"
        },
        {
          "internalType": "enum GuitarShop.State",
          "name": "state",
          "type": "uint8"
        }
      ],
      "stateMutability": "view",
      "type": "function",
      "constant": true
    },
    {
      "inputs": [],
      "name": "skuCount",
      "outputs": [
        {
          "internalType": "uint256",
          "name": "",
          "type": "uint256"
        }
      ],
      "stateMutability": "view",
      "type": "function",
      "constant": true
    },
    {
      "inputs": [
        {
          "internalType": "uint256",
          "name": "_price",
          "type": "uint256"
        },
        {
          "internalType": "string",
          "name": "_name",
          "type": "string"
        }
      ],
      "name": "addItem",
      "outputs": [],
      "stateMutability": "nonpayable",
      "type": "function"
    },
    {
      "inputs": [
        {
          "internalType": "uint256",
          "name": "sku",
          "type": "uint256"
        }
      ],
      "name": "buyItem",
      "outputs": [],
      "stateMutability": "payable",
      "type": "function",
      "payable": true
    },
    {
      "inputs": [
        {
          "internalType": "uint256",
          "name": "sku",
          "type": "uint256"
        }
      ],
      "name": "shipItem",
      "outputs": [],
      "stateMutability": "nonpayable",
      "type": "function"
    },
    {
      "inputs": [
        {
          "internalType": "uint256",
          "name": "sku",
          "type": "uint256"
        }
      ],
      "name": "receiveItem",
      "outputs": [],
      "stateMutability": "nonpayable",
      "type": "function"
    },
    {
      "inputs": [
        {
          "internalType": "uint256",
          "name": "_sku",
          "type": "uint256"
        }
      ],
      "name": "fetchItem",
      "outputs": [
        {
          "internalType": "string",
          "name": "name",
          "type": "string"
        },
        {
          "internalType": "uint256",
          "name": "price",
          "type": "uint256"
        },
        {
          "internalType": "uint256",
          "name": "sku",
          "type": "uint256"
        },
        {
          "internalType": "address",
          "name": "seller",
          "type": "address"
        },
        {
          "internalType": "address",
          "name": "buyer",
          "type": "address"
        },
        {
          "internalType": "string",
          "name": "stateIs",
          "type": "string"
        }
      ],
      "stateMutability": "view",
      "type": "function",
      "constant": true
    }
  ],
  "bytecode": "0x608060405234801561001057600080fd5b50336000806101000a81548173ffffffffffffffffffffffffffffffffffffffff021916908373ffffffffffffffffffffffffffffffffffffffff16021790555060006001819055506112dc806100686000396000f3fe6080604052600436106100705760003560e01c8063be572d521161004e578063be572d521461010b578063bfb231d214610134578063e7fb74c714610176578063f61c899a1461019257610070565b80632270247314610075578063a26be999146100a0578063ad4b9cfb146100c9575b600080fd5b34801561008157600080fd5b5061008a6101bb565b6040516100979190610f68565b60405180910390f35b3480156100ac57600080fd5b506100c760048036038101906100c29190610d18565b6101c1565b005b3480156100d557600080fd5b506100f060048036038101906100eb9190610d18565b610300565b60405161010296959493929190610ed9565b60405180910390f35b34801561011757600080fd5b50610132600480360381019061012d9190610d45565b610517565b005b34801561014057600080fd5b5061015b60048036038101906101569190610d18565b61073d565b60405161016d96959493929190610e71565b60405180910390f35b610190600480360381019061018b9190610d18565b61084e565b005b34801561019e57600080fd5b506101b960048036038101906101b49190610d18565b610a9c565b005b60015481565b80600260038111156101d6576101d561119d565b5b6002600083815260200190815260200160002060040160149054906101000a900460ff16600381111561020c5761020b61119d565b5b1461021657600080fd5b6002600083815260200190815260200160002060030160009054906101000a900473ffffffffffffffffffffffffffffffffffffffff168073ffffffffffffffffffffffffffffffffffffffff163373ffffffffffffffffffffffffffffffffffffffff161461028557600080fd5b60036002600085815260200190815260200160002060040160146101000a81548160ff021916908360038111156102bf576102be61119d565b5b02179055507fa8142743f8f70a4c26f3691cf4ed59718381fb2f18070ec52be1f1022d855557836040516102f39190610f68565b60405180910390a1505050565b60606000806000806060600060026000898152602001908152602001600020600001805461032d9061110b565b80601f01602080910402602001604051908101604052809291908181526020018280546103599061110b565b80156103a65780601f1061037b576101008083540402835291602001916103a6565b820191906000526020600020905b81548152906001019060200180831161038957829003601f168201915b5050505050965060026000898152602001908152602001600020600101549550600260008981526020019081526020016000206002015494506002600089815260200190815260200160002060030160009054906101000a900473ffffffffffffffffffffffffffffffffffffffff1693506002600089815260200190815260200160002060040160009054906101000a900473ffffffffffffffffffffffffffffffffffffffff1692506002600089815260200190815260200160002060040160149054906101000a900460ff1660038111156104875761048661119d565b5b905060008114156104cb576040518060400160405280600881526020017f466f722053616c6500000000000000000000000000000000000000000000000081525091505b600181141561050d576040518060400160405280600481526020017f536f6c640000000000000000000000000000000000000000000000000000000081525091505b5091939550919395565b60008054906101000a900473ffffffffffffffffffffffffffffffffffffffff1673ffffffffffffffffffffffffffffffffffffffff163373ffffffffffffffffffffffffffffffffffffffff161461056f57600080fd5b61058460018054610bda90919063ffffffff16565b6001819055506040518060c0016040528082815260200183815260200160015481526020013373ffffffffffffffffffffffffffffffffffffffff168152602001600073ffffffffffffffffffffffffffffffffffffffff168152602001600060038111156105f6576105f561119d565b5b815250600260006001548152602001908152602001600020600082015181600001908051906020019061062a929190610bf0565b50602082015181600101556040820151816002015560608201518160030160006101000a81548173ffffffffffffffffffffffffffffffffffffffff021916908373ffffffffffffffffffffffffffffffffffffffff16021790555060808201518160040160006101000a81548173ffffffffffffffffffffffffffffffffffffffff021916908373ffffffffffffffffffffffffffffffffffffffff16021790555060a08201518160040160146101000a81548160ff021916908360038111156106f8576106f761119d565b5b02179055509050507fa96ae0fc3224ebd79eebfe54bd130cc9cb94416cddd1f2386115e00b725324686001546040516107319190610f68565b60405180910390a15050565b60026020528060005260406000206000915090508060000180546107609061110b565b80601f016020809104026020016040519081016040528092919081815260200182805461078c9061110b565b80156107d95780601f106107ae576101008083540402835291602001916107d9565b820191906000526020600020905b8154815290600101906020018083116107bc57829003601f168201915b5050505050908060010154908060020154908060030160009054906101000a900473ffffffffffffffffffffffffffffffffffffffff16908060040160009054906101000a900473ffffffffffffffffffffffffffffffffffffffff16908060040160149054906101000a900460ff16905086565b80600060038111156108635761086261119d565b5b6002600083815260200190815260200160002060040160149054906101000a900460ff1660038111156108995761089861119d565b5b146108a357600080fd5b6002600083815260200190815260200160002060010154803410156108c757600080fd5b6000339050600060026000868152602001908152602001600020600101549050816002600087815260200190815260200160002060040160006101000a81548173ffffffffffffffffffffffffffffffffffffffff021916908373ffffffffffffffffffffffffffffffffffffffff16021790555060016002600087815260200190815260200160002060040160146101000a81548160ff021916908360038111156109765761097561119d565b5b021790555060006002600087815260200190815260200160002060030160009054906101000a900473ffffffffffffffffffffffffffffffffffffffff1673ffffffffffffffffffffffffffffffffffffffff16826040516109d790610e5c565b60006040518083038185875af1925050503d8060008114610a14576040519150601f19603f3d011682016040523d82523d6000602084013e610a19565b606091505b5050905080610a5d576040517f08c379a0000000000000000000000000000000000000000000000000000000008152600401610a5490610f48565b60405180910390fd5b7f92f64ca637d023f354075a4be751b169c1a8a9ccb6d33cdd0cb352054399572786604051610a8c9190610f68565b60405180910390a1505050505050565b8060016003811115610ab157610ab061119d565b5b6002600083815260200190815260200160002060040160149054906101000a900460ff166003811115610ae757610ae661119d565b5b14610af157600080fd5b6002600083815260200190815260200160002060030160009054906101000a900473ffffffffffffffffffffffffffffffffffffffff168073ffffffffffffffffffffffffffffffffffffffff163373ffffffffffffffffffffffffffffffffffffffff1614610b6057600080fd5b600280600085815260200190815260200160002060040160146101000a81548160ff02191690836003811115610b9957610b9861119d565b5b02179055507ff00b9a5725b80c54016f42114f6ed7792d22eecb116011c4afac29c57bef6c9583604051610bcd9190610f68565b60405180910390a1505050565b60008183610be89190611000565b905092915050565b828054610bfc9061110b565b90600052602060002090601f016020900481019282610c1e5760008555610c65565b82601f10610c3757805160ff1916838001178555610c65565b82800160010185558215610c65579182015b82811115610c64578251825591602001919060010190610c49565b5b509050610c729190610c76565b5090565b5b80821115610c8f576000816000905550600101610c77565b5090565b6000610ca6610ca184610fa8565b610f83565b905082815260208101848484011115610cc257610cc161122f565b5b610ccd8482856110c9565b509392505050565b600082601f830112610cea57610ce961122a565b5b8135610cfa848260208601610c93565b91505092915050565b600081359050610d128161128f565b92915050565b600060208284031215610d2e57610d2d611239565b5b6000610d3c84828501610d03565b91505092915050565b60008060408385031215610d5c57610d5b611239565b5b6000610d6a85828601610d03565b925050602083013567ffffffffffffffff811115610d8b57610d8a611234565b5b610d9785828601610cd5565b9150509250929050565b610daa81611068565b82525050565b610db981611056565b82525050565b610dc8816110b7565b82525050565b6000610dd982610fd9565b610de38185610fef565b9350610df38185602086016110d8565b610dfc8161123e565b840191505092915050565b6000610e14600f83610fef565b9150610e1f8261124f565b602082019050919050565b6000610e37600083610fe4565b9150610e4282611278565b600082019050919050565b610e56816110ad565b82525050565b6000610e6782610e2a565b9150819050919050565b600060c0820190508181036000830152610e8b8189610dce565b9050610e9a6020830188610e4d565b610ea76040830187610e4d565b610eb46060830186610da1565b610ec16080830185610da1565b610ece60a0830184610dbf565b979650505050505050565b600060c0820190508181036000830152610ef38189610dce565b9050610f026020830188610e4d565b610f0f6040830187610e4d565b610f1c6060830186610db0565b610f296080830185610db0565b81810360a0830152610f3b8184610dce565b9050979650505050505050565b60006020820190508181036000830152610f6181610e07565b9050919050565b6000602082019050610f7d6000830184610e4d565b92915050565b6000610f8d610f9e565b9050610f99828261113d565b919050565b6000604051905090565b600067ffffffffffffffff821115610fc357610fc26111fb565b5b610fcc8261123e565b9050602081019050919050565b600081519050919050565b600081905092915050565b600082825260208201905092915050565b600061100b826110ad565b9150611016836110ad565b9250827fffffffffffffffffffffffffffffffffffffffffffffffffffffffffffffffff0382111561104b5761104a61116e565b5b828201905092915050565b60006110618261108d565b9050919050565b60006110738261108d565b9050919050565b60008190506110888261127b565b919050565b600073ffffffffffffffffffffffffffffffffffffffff82169050919050565b6000819050919050565b60006110c28261107a565b9050919050565b82818337600083830152505050565b60005b838110156110f65780820151818401526020810190506110db565b83811115611105576000848401525b50505050565b6000600282049050600182168061112357607f821691505b60208210811415611137576111366111cc565b5b50919050565b6111468261123e565b810181811067ffffffffffffffff82111715611165576111646111fb565b5b80604052505050565b7f4e487b7100000000000000000000000000000000000000000000000000000000600052601160045260246000fd5b7f4e487b7100000000000000000000000000000000000000000000000000000000600052602160045260246000fd5b7f4e487b7100000000000000000000000000000000000000000000000000000000600052602260045260246000fd5b7f4e487b7100000000000000000000000000000000000000000000000000000000600052604160045260246000fd5b600080fd5b600080fd5b600080fd5b600080fd5b6000601f19601f8301169050919050565b7f5472616e73666572206661696c65640000000000000000000000000000000000600082015250565b50565b6004811061128c5761128b61119d565b5b50565b611298816110ad565b81146112a357600080fd5b5056fea2646970667358221220d550675653c70cb40674c6f197708255982955e97377e3eb4f18e2615a54854664736f6c63430008060033",
  "immutableReferences": {},
  "source": "// SPDX-License-Identifier: MIT\npragma solidity 0.8.6;\n\nimport \"./SafeMath.sol\";\n\ncontract GuitarShop {\n    using SafeMath for uint256;\n\n    address payable owner;\n    uint256 public skuCount;\n\n    mapping(uint256 => Item) public items;\n\n    constructor() {\n        owner = payable(msg.sender);\n        skuCount = 0;\n    }\n\n    enum State {\n        ForSale,\n        Sold,\n        Shipped,\n        Received\n    }\n\n    struct Item {\n        string name;\n        uint256 price;\n        uint256 sku;\n        address payable seller;\n        address payable buyer;\n        State state;\n    }\n\n    //events\n    event ForSale(uint256 skuCount);\n\n    event Sold(uint256 sku);\n\n    event Shipped(uint256 sku);\n\n    event Received(uint256 sku);\n\n    //modifiers\n    modifier onlyOwner() {\n        require(msg.sender == owner);\n        _;\n    }\n\n    modifier verifyCaller(address _address) {\n        require(msg.sender == _address);\n        _;\n    }\n\n    modifier paidEnough(uint256 _price) {\n        require(msg.value >= _price);\n        _;\n    }\n\n    modifier forSale(uint256 _sku) {\n        require(items[_sku].state == State.ForSale);\n        _;\n    }\n\n    modifier sold(uint256 _sku) {\n        require(items[_sku].state == State.Sold);\n        _;\n    }\n\n    modifier shipped(uint256 _sku) {\n        require(items[_sku].state == State.Shipped);\n        _;\n    }\n\n    modifier received(uint256 _sku) {\n        require(items[_sku].state == State.Received);\n        _;\n    }\n\n    //note sku = skuCount in Item struct properties\n    function addItem(uint256 _price, string memory _name) public onlyOwner {\n        skuCount = skuCount.add(1);\n        items[skuCount] = Item({\n            sku: skuCount,\n            price: _price,\n            name: _name,\n            state: State.ForSale,\n            seller: payable(msg.sender),\n            buyer: payable(address(0))\n        });\n        emit ForSale(skuCount);\n    }\n\n    function buyItem(uint256 sku)\n        public\n        payable\n        forSale(sku)\n        paidEnough(items[sku].price)\n    {\n        address buyer = msg.sender;\n        uint256 price = items[sku].price;\n        items[sku].buyer = payable(buyer);\n        items[sku].state = State.Sold;\n        (bool success, ) = items[sku].seller.call{value: price}(\"\");\n        require(success, \"Transfer failed\");\n        emit Sold(sku);\n    }\n\n    function shipItem(uint256 sku)\n        public\n        sold(sku)\n        verifyCaller(items[sku].seller)\n    {\n        items[sku].state = State.Shipped;\n        emit Shipped(sku);\n    }\n\n    //This function should allow the seller to mark the item as recieved\n    function receiveItem(uint256 sku)\n        public\n        shipped(sku)\n        verifyCaller(items[sku].seller)\n    {\n        items[sku].state = State.Received;\n        emit Received(sku);\n    }\n\n    // Do not need payable keyword when getting only\n    function fetchItem(uint256 _sku)\n        public\n        view\n        returns (\n            string memory name,\n            uint256 price,\n            uint256 sku,\n            address seller,\n            address buyer,\n            string memory stateIs\n        )\n    {\n        uint256 state;\n        name = items[_sku].name;\n        price = items[_sku].price;\n        sku = items[_sku].sku;\n        seller = items[_sku].seller;\n        buyer = items[_sku].buyer;\n        state = uint256(items[_sku].state);\n        if (state == 0) {\n            stateIs = \"For Sale\";\n        }\n        if (state == 1) {\n            stateIs = \"Sold\";\n        }\n    }\n}\n",
  "sourcePath": "/Users/josephdeangeloi/Documents/Github/SupplyChain-GuitarShop/contracts/GuitarShop.sol",
  "compiler": {
    "name": "solc",
    "version": "0.8.6+commit.11564f7e.Emscripten.clang"
  },
  "schemaVersion": "3.4.3",
  "updatedAt": "2022-01-14T22:35:37.749Z",
  "networkType": "ethereum",
  "devdoc": {
    "kind": "dev",
    "methods": {},
    "version": 1
  },
  "userdoc": {
    "kind": "user",
    "methods": {},
    "version": 1
  }
}